{
  "abi": [
    {
      "type": "constructor",
      "inputs": [
        {
          "name": "initialOwner",
          "type": "address",
          "internalType": "address"
        }
      ],
      "stateMutability": "nonpayable"
    },
    {
      "type": "function",
      "name": "authorize",
      "inputs": [
        {
          "name": "target",
          "type": "address",
          "internalType": "address"
        }
      ],
      "outputs": [],
      "stateMutability": "nonpayable"
    },
    {
      "type": "function",
      "name": "owner",
      "inputs": [],
      "outputs": [
        {
          "name": "",
          "type": "address",
          "internalType": "address"
        }
      ],
      "stateMutability": "view"
    },
    {
      "type": "function",
      "name": "renounceOwnership",
      "inputs": [],
      "outputs": [],
      "stateMutability": "nonpayable"
    },
    {
      "type": "function",
      "name": "request",
      "inputs": [
        {
          "name": "timestamp",
          "type": "uint256",
          "internalType": "uint256"
        },
        {
          "name": "url",
          "type": "string",
          "internalType": "string"
        },
        {
          "name": "key",
          "type": "string",
          "internalType": "string"
        },
        {
          "name": "condition",
          "type": "string",
          "internalType": "string"
        }
      ],
      "outputs": [
        {
          "name": "",
          "type": "uint256",
          "internalType": "uint256"
        }
      ],
      "stateMutability": "nonpayable"
    },
    {
      "type": "function",
      "name": "response",
      "inputs": [
        {
          "name": "id",
          "type": "uint256",
          "internalType": "uint256"
        },
        {
          "name": "target",
          "type": "address",
          "internalType": "address"
        },
        {
          "name": "direction",
          "type": "uint8",
          "internalType": "uint8"
        }
      ],
      "outputs": [],
      "stateMutability": "nonpayable"
    },
    {
      "type": "function",
      "name": "transferOwnership",
      "inputs": [
        {
          "name": "newOwner",
          "type": "address",
          "internalType": "address"
        }
      ],
      "outputs": [],
      "stateMutability": "nonpayable"
    },
    {
      "type": "function",
      "name": "unauthorize",
      "inputs": [
        {
          "name": "target",
          "type": "address",
          "internalType": "address"
        }
      ],
      "outputs": [],
      "stateMutability": "nonpayable"
    },
    {
      "type": "event",
      "name": "OwnershipTransferred",
      "inputs": [
        {
          "name": "previousOwner",
          "type": "address",
          "indexed": true,
          "internalType": "address"
        },
        {
          "name": "newOwner",
          "type": "address",
          "indexed": true,
          "internalType": "address"
        }
      ],
      "anonymous": false
    },
    {
      "type": "event",
      "name": "Request",
      "inputs": [
        {
          "name": "id",
          "type": "uint256",
          "indexed": true,
          "internalType": "uint256"
        },
        {
          "name": "target",
          "type": "address",
          "indexed": true,
          "internalType": "address"
        },
        {
          "name": "timestamp",
          "type": "uint256",
          "indexed": false,
          "internalType": "uint256"
        },
        {
          "name": "url",
          "type": "string",
          "indexed": false,
          "internalType": "string"
        },
        {
          "name": "key",
          "type": "string",
          "indexed": false,
          "internalType": "string"
        },
        {
          "name": "condition",
          "type": "string",
          "indexed": false,
          "internalType": "string"
        }
      ],
      "anonymous": false
    },
    {
      "type": "event",
      "name": "Response",
      "inputs": [
        {
          "name": "id",
          "type": "uint256",
          "indexed": false,
          "internalType": "uint256"
        },
        {
          "name": "target",
          "type": "address",
          "indexed": false,
          "internalType": "address"
        },
        {
          "name": "direction",
          "type": "uint8",
          "indexed": false,
          "internalType": "uint8"
        }
      ],
      "anonymous": false
    },
    {
      "type": "error",
      "name": "OwnableInvalidOwner",
      "inputs": [
        {
          "name": "owner",
          "type": "address",
          "internalType": "address"
        }
      ]
    },
    {
      "type": "error",
      "name": "OwnableUnauthorizedAccount",
      "inputs": [
        {
          "name": "account",
          "type": "address",
          "internalType": "address"
        }
      ]
    }
  ],
  "bytecode": {
    "object": "0x608060405234801561001057600080fd5b506040516107b03803806107b083398101604081905261002f916100be565b806001600160a01b03811661005e57604051631e4fbdf760e01b81526000600482015260240160405180910390fd5b6100678161006e565b50506100ee565b600080546001600160a01b038381166001600160a01b0319831681178455604051919092169283917f8be0079c531659141344cd1fd0a4f28419497f9722a3daafe3b4186f6b6457e09190a35050565b6000602082840312156100d057600080fd5b81516001600160a01b03811681146100e757600080fd5b9392505050565b6106b3806100fd6000396000f3fe608060405234801561001057600080fd5b506004361061007d5760003560e01c80638da5cb5b1161005b5780638da5cb5b146100c5578063b6a5d7de146100e0578063f0b37c04146100f3578063f2fde38b1461010657600080fd5b8063468fff641461008257806363754c8014610097578063715018a6146100bd575b600080fd5b6100956100903660046103f9565b610119565b005b6100aa6100a53660046104e2565b610230565b6040519081526020015b60405180910390f35b6100956102b6565b6000546040516001600160a01b0390911681526020016100b4565b6100956100ee366004610574565b6102ca565b610095610101366004610574565b6102f9565b610095610114366004610574565b610322565b3360009081526001602052604090205460ff1661017d5760405162461bcd60e51b815260206004820152601f60248201527f4f6666436861696e4461746146657463683a20756e617574686f72697a65640060448201526064015b60405180910390fd5b604051633c5e402560e11b81526004810184905260ff821660248201526001600160a01b038316906378bc804a90604401600060405180830381600087803b1580156101c857600080fd5b505af11580156101dc573d6000803e3d6000fd5b5050604080518681526001600160a01b038616602082015260ff85168183015290517f6243a089f75fdb21c0ce8b032e06933f541e9d2d058c4f28fa506cfa116bcb0a9350908190036060019150a1505050565b6000808585858560405160200161024a94939291906105ba565b6040516020818303038152906040528051906020012060001c9050336001600160a01b0316817fdadf56804042c2e9343c92454a47e1d8e7ae562930ed6ee7a04bb480a35bfd3f888888886040516102a59493929190610633565b60405180910390a395945050505050565b6102be610360565b6102c8600061038d565b565b6102d2610360565b6001600160a01b03166000908152600160208190526040909120805460ff19169091179055565b610301610360565b6001600160a01b03166000908152600160205260409020805460ff19169055565b61032a610360565b6001600160a01b03811661035457604051631e4fbdf760e01b815260006004820152602401610174565b61035d8161038d565b50565b6000546001600160a01b031633146102c85760405163118cdaa760e01b8152336004820152602401610174565b600080546001600160a01b038381166001600160a01b0319831681178455604051919092169283917f8be0079c531659141344cd1fd0a4f28419497f9722a3daafe3b4186f6b6457e09190a35050565b80356001600160a01b03811681146103f457600080fd5b919050565b60008060006060848603121561040e57600080fd5b8335925061041e602085016103dd565b9150604084013560ff8116811461043457600080fd5b809150509250925092565b634e487b7160e01b600052604160045260246000fd5b600082601f83011261046657600080fd5b813567ffffffffffffffff808211156104815761048161043f565b604051601f8301601f19908116603f011681019082821181831017156104a9576104a961043f565b816040528381528660208588010111156104c257600080fd5b836020870160208301376000602085830101528094505050505092915050565b600080600080608085870312156104f857600080fd5b84359350602085013567ffffffffffffffff8082111561051757600080fd5b61052388838901610455565b9450604087013591508082111561053957600080fd5b61054588838901610455565b9350606087013591508082111561055b57600080fd5b5061056887828801610455565b91505092959194509250565b60006020828403121561058657600080fd5b61058f826103dd565b9392505050565b60005b838110156105b1578181015183820152602001610599565b50506000910152565b8481526000602085516105d281838601848a01610596565b8551908401906105e781848401858a01610596565b85519101906105fb81848401858901610596565b01019695505050505050565b6000815180845261061f816020860160208601610596565b601f01601f19169290920160200192915050565b84815260806020820152600061064c6080830186610607565b828103604084015261065e8186610607565b905082810360608401526106728185610607565b97965050505050505056fea2646970667358221220c8453faba3bc19e440a0e7701122b0a6606ca8022d239f3cc52f80777edfdb0f64736f6c63430008190033",
    "linkReferences": {}
  },
  "methodIdentifiers": {
    "authorize(address)": "b6a5d7de",
    "owner()": "8da5cb5b",
    "renounceOwnership()": "715018a6",
    "request(uint256,string,string,string)": "63754c80",
    "response(uint256,address,uint8)": "468fff64",
    "transferOwnership(address)": "f2fde38b",
    "unauthorize(address)": "f0b37c04"
  },
  "id": 4
}