{
  "abi": [
    {
      "type": "constructor",
      "inputs": [
        {
          "name": "oracleRouter",
          "type": "address",
          "internalType": "address"
        }
      ],
      "stateMutability": "nonpayable"
    },
    {
      "type": "function",
      "name": "betFor",
      "inputs": [
        {
          "name": "id",
          "type": "uint256",
          "internalType": "uint256"
        },
        {
          "name": "direction",
          "type": "uint8",
          "internalType": "uint8"
        }
      ],
      "outputs": [],
      "stateMutability": "payable"
    },
    {
      "type": "function",
      "name": "betInfo",
      "inputs": [
        {
          "name": "id",
          "type": "uint256",
          "internalType": "uint256"
        }
      ],
      "outputs": [
        {
          "name": "",
          "type": "tuple",
          "internalType": "struct BetInfo",
          "components": [
            {
              "name": "creator",
              "type": "address",
              "internalType": "address"
            },
            {
              "name": "status",
              "type": "uint8",
              "internalType": "uint8"
            },
            {
              "name": "result",
              "type": "uint8",
              "internalType": "uint8"
            },
            {
              "name": "id",
              "type": "uint256",
              "internalType": "uint256"
            },
            {
              "name": "timestamp",
              "type": "uint256",
              "internalType": "uint256"
            },
            {
              "name": "total",
              "type": "uint256",
              "internalType": "uint256"
            },
            {
              "name": "directionsAmount",
              "type": "uint256[]",
              "internalType": "uint256[]"
            },
            {
              "name": "url",
              "type": "string",
              "internalType": "string"
            },
            {
              "name": "condition",
              "type": "string",
              "internalType": "string"
            },
            {
              "name": "keys",
              "type": "string[]",
              "internalType": "string[]"
            },
            {
              "name": "params",
              "type": "string[]",
              "internalType": "string[]"
            }
          ]
        }
      ],
      "stateMutability": "view"
    },
    {
      "type": "function",
      "name": "createBet",
      "inputs": [
        {
          "name": "maxDirection",
          "type": "uint256",
          "internalType": "uint256"
        },
        {
          "name": "timestamp",
          "type": "uint256",
          "internalType": "uint256"
        },
        {
          "name": "url",
          "type": "string",
          "internalType": "string"
        },
        {
          "name": "condition",
          "type": "string",
          "internalType": "string"
        },
        {
          "name": "params",
          "type": "string[]",
          "internalType": "string[]"
        },
        {
          "name": "key",
          "type": "string[]",
          "internalType": "string[]"
        }
      ],
      "outputs": [
        {
          "name": "",
          "type": "uint256",
          "internalType": "uint256"
        }
      ],
      "stateMutability": "payable"
    },
    {
      "type": "function",
      "name": "feeAmount",
      "inputs": [],
      "outputs": [
        {
          "name": "",
          "type": "uint256",
          "internalType": "uint256"
        }
      ],
      "stateMutability": "view"
    },
    {
      "type": "function",
      "name": "feeRecipient",
      "inputs": [],
      "outputs": [
        {
          "name": "",
          "type": "address",
          "internalType": "address"
        }
      ],
      "stateMutability": "view"
    },
    {
      "type": "function",
      "name": "fulfillRequest",
      "inputs": [
        {
          "name": "id",
          "type": "uint256",
          "internalType": "uint256"
        },
        {
          "name": "direction",
          "type": "uint8",
          "internalType": "uint8"
        }
      ],
      "outputs": [],
      "stateMutability": "nonpayable"
    },
    {
      "type": "function",
      "name": "getActiveBetsByUser",
      "inputs": [
        {
          "name": "user",
          "type": "address",
          "internalType": "address"
        }
      ],
      "outputs": [
        {
          "name": "",
          "type": "uint256[]",
          "internalType": "uint256[]"
        }
      ],
      "stateMutability": "view"
    },
    {
      "type": "function",
      "name": "getBetId",
      "inputs": [
        {
          "name": "condition",
          "type": "string",
          "internalType": "string"
        },
        {
          "name": "url",
          "type": "string",
          "internalType": "string"
        },
        {
          "name": "maxDirection",
          "type": "uint256",
          "internalType": "uint256"
        }
      ],
      "outputs": [
        {
          "name": "",
          "type": "uint256",
          "internalType": "uint256"
        }
      ],
      "stateMutability": "pure"
    },
    {
      "type": "function",
      "name": "getBetResult",
      "inputs": [
        {
          "name": "id",
          "type": "uint256",
          "internalType": "uint256"
        }
      ],
      "outputs": [
        {
          "name": "",
          "type": "uint8",
          "internalType": "uint8"
        }
      ],
      "stateMutability": "view"
    },
    {
      "type": "function",
      "name": "getBetStatus",
      "inputs": [
        {
          "name": "id",
          "type": "uint256",
          "internalType": "uint256"
        }
      ],
      "outputs": [
        {
          "name": "",
          "type": "uint8",
          "internalType": "uint8"
        }
      ],
      "stateMutability": "view"
    },
    {
      "type": "function",
      "name": "getOdds",
      "inputs": [
        {
          "name": "id",
          "type": "uint256",
          "internalType": "uint256"
        }
      ],
      "outputs": [
        {
          "name": "",
          "type": "uint256[]",
          "internalType": "uint256[]"
        }
      ],
      "stateMutability": "view"
    },
    {
      "type": "function",
      "name": "getOddsByDirection",
      "inputs": [
        {
          "name": "id",
          "type": "uint256",
          "internalType": "uint256"
        },
        {
          "name": "direction",
          "type": "uint8",
          "internalType": "uint8"
        }
      ],
      "outputs": [
        {
          "name": "",
          "type": "uint256",
          "internalType": "uint256"
        }
      ],
      "stateMutability": "view"
    },
    {
      "type": "function",
      "name": "owner",
      "inputs": [],
      "outputs": [
        {
          "name": "",
          "type": "address",
          "internalType": "address"
        }
      ],
      "stateMutability": "view"
    },
    {
      "type": "function",
      "name": "renounceOwnership",
      "inputs": [],
      "outputs": [],
      "stateMutability": "nonpayable"
    },
    {
      "type": "function",
      "name": "requestOracle",
      "inputs": [
        {
          "name": "id",
          "type": "uint256",
          "internalType": "uint256"
        }
      ],
      "outputs": [],
      "stateMutability": "nonpayable"
    },
    {
      "type": "function",
      "name": "transferOwnership",
      "inputs": [
        {
          "name": "newOwner",
          "type": "address",
          "internalType": "address"
        }
      ],
      "outputs": [],
      "stateMutability": "nonpayable"
    },
    {
      "type": "function",
      "name": "userBetById",
      "inputs": [
        {
          "name": "id",
          "type": "uint256",
          "internalType": "uint256"
        },
        {
          "name": "user",
          "type": "address",
          "internalType": "address"
        }
      ],
      "outputs": [
        {
          "name": "",
          "type": "tuple",
          "internalType": "struct UserBet",
          "components": [
            {
              "name": "id",
              "type": "uint256",
              "internalType": "uint256"
            },
            {
              "name": "amount",
              "type": "uint256",
              "internalType": "uint256"
            },
            {
              "name": "direction",
              "type": "uint8",
              "internalType": "uint8"
            }
          ]
        }
      ],
      "stateMutability": "view"
    },
    {
      "type": "function",
      "name": "userBets",
      "inputs": [
        {
          "name": "",
          "type": "address",
          "internalType": "address"
        },
        {
          "name": "",
          "type": "uint256",
          "internalType": "uint256"
        }
      ],
      "outputs": [
        {
          "name": "id",
          "type": "uint256",
          "internalType": "uint256"
        },
        {
          "name": "amount",
          "type": "uint256",
          "internalType": "uint256"
        },
        {
          "name": "direction",
          "type": "uint8",
          "internalType": "uint8"
        }
      ],
      "stateMutability": "view"
    },
    {
      "type": "function",
      "name": "withdraw",
      "inputs": [
        {
          "name": "id",
          "type": "uint256",
          "internalType": "uint256"
        }
      ],
      "outputs": [
        {
          "name": "amounts",
          "type": "uint256",
          "internalType": "uint256"
        }
      ],
      "stateMutability": "nonpayable"
    },
    {
      "type": "function",
      "name": "withdrawFees",
      "inputs": [],
      "outputs": [],
      "stateMutability": "nonpayable"
    },
    {
      "type": "event",
      "name": "Bet",
      "inputs": [
        {
          "name": "id",
          "type": "uint256",
          "indexed": true,
          "internalType": "uint256"
        },
        {
          "name": "timestamp",
          "type": "uint256",
          "indexed": false,
          "internalType": "uint256"
        },
        {
          "name": "url",
          "type": "string",
          "indexed": false,
          "internalType": "string"
        }
      ],
      "anonymous": false
    },
    {
      "type": "event",
      "name": "OwnershipTransferred",
      "inputs": [
        {
          "name": "previousOwner",
          "type": "address",
          "indexed": true,
          "internalType": "address"
        },
        {
          "name": "newOwner",
          "type": "address",
          "indexed": true,
          "internalType": "address"
        }
      ],
      "anonymous": false
    },
    {
      "type": "event",
      "name": "Result",
      "inputs": [
        {
          "name": "id",
          "type": "uint256",
          "indexed": true,
          "internalType": "uint256"
        },
        {
          "name": "value",
          "type": "string",
          "indexed": true,
          "internalType": "string"
        }
      ],
      "anonymous": false
    },
    {
      "type": "error",
      "name": "OwnableInvalidOwner",
      "inputs": [
        {
          "name": "owner",
          "type": "address",
          "internalType": "address"
        }
      ]
    },
    {
      "type": "error",
      "name": "OwnableUnauthorizedAccount",
      "inputs": [
        {
          "name": "account",
          "type": "address",
          "internalType": "address"
        }
      ]
    }
  ],
  "bytecode": {
    "object": "0x608060405260c86003556101f460045566038d7ea4c6800060055534801561002657600080fd5b50604051612cfd380380612cfd833981016040819052610045916100ea565b338061006b57604051631e4fbdf760e01b81526000600482015260240160405180910390fd5b6100748161009a565b50600280546001600160a01b0319166001600160a01b039290921691909117905561011a565b600080546001600160a01b038381166001600160a01b0319831681178455604051919092169283917f8be0079c531659141344cd1fd0a4f28419497f9722a3daafe3b4186f6b6457e09190a35050565b6000602082840312156100fc57600080fd5b81516001600160a01b038116811461011357600080fd5b9392505050565b612bd4806101296000396000f3fe60806040526004361061011f5760003560e01c806378bc804a116100a0578063936cc30211610064578063936cc302146103cd578063ca29e2e3146103e0578063e865665a14610400578063eb07646114610420578063f2fde38b1461044057600080fd5b806378bc804a146102d05780638068aa68146102f057806384bad788146103585780638da5cb5b1461037857806392a2bfe31461039657600080fd5b80634e778bb7116100e75780634e778bb71461020457806361f14f111461024957806369a677ae1461029257806369e15404146102a5578063715018a6146102bb57600080fd5b8063126c4166146101245780632d629ed41461015a5780632e1a7d4d1461018757806346904840146101b5578063476343ee146101ed575b600080fd5b34801561013057600080fd5b5061014461013f3660046122e8565b610460565b6040516101519190612301565b60405180910390f35b34801561016657600080fd5b5061017a6101753660046122e8565b610949565b604051610151919061242b565b34801561019357600080fd5b506101a76101a23660046122e8565b610d4c565b604051908152602001610151565b3480156101c157600080fd5b506001546101d5906001600160a01b031681565b6040516001600160a01b039091168152602001610151565b3480156101f957600080fd5b50610202610d5d565b005b34801561021057600080fd5b5061022461021f366004612540565b610e59565b6040805182518152602080840151908201529181015160ff1690820152606001610151565b34801561025557600080fd5b506102806102643660046122e8565b600090815260076020526040902054600160a01b900460ff1690565b60405160ff9091168152602001610151565b6102026102a036600461256c565b610ed2565b3480156102b157600080fd5b506101a760065481565b3480156102c757600080fd5b50610202611214565b3480156102dc57600080fd5b506102026102eb36600461256c565b611228565b3480156102fc57600080fd5b5061033a61030b3660046125a2565b600860209081526000928352604080842090915290825290208054600182015460029092015490919060ff1683565b60408051938452602084019290925260ff1690820152606001610151565b34801561036457600080fd5b506101a7610373366004612683565b6113b7565b34801561038457600080fd5b506000546001600160a01b03166101d5565b3480156103a257600080fd5b506102806103b13660046122e8565b600090815260076020526040902054600160a81b900460ff1690565b6101a76103db36600461278f565b6113cc565b3480156103ec57600080fd5b506101446103fb36600461284e565b6115b9565b34801561040c57600080fd5b506101a761041b36600461256c565b611625565b34801561042c57600080fd5b5061020261043b3660046122e8565b611a5f565b34801561044c57600080fd5b5061020261045b36600461284e565b611b49565b600081815260076020908152604080832081516101608101835281546001600160a01b038116825260ff600160a01b8204811683870152600160a81b9091041681840152600182015460608281019190915260028301546080830152600383015460a0830152600483018054855181880281018801909652808652919695929460c086019390929083018282801561051757602002820191906000526020600020905b815481526020019060010190808311610503575b5050505050815260200160058201805461053090612870565b80601f016020809104026020016040519081016040528092919081815260200182805461055c90612870565b80156105a95780601f1061057e576101008083540402835291602001916105a9565b820191906000526020600020905b81548152906001019060200180831161058c57829003601f168201915b505050505081526020016006820180546105c290612870565b80601f01602080910402602001604051908101604052809291908181526020018280546105ee90612870565b801561063b5780601f106106105761010080835404028352916020019161063b565b820191906000526020600020905b81548152906001019060200180831161061e57829003601f168201915b5050505050815260200160078201805480602002602001604051908101604052809291908181526020016000905b8282101561071557838290600052602060002001805461068890612870565b80601f01602080910402602001604051908101604052809291908181526020018280546106b490612870565b80156107015780601f106106d657610100808354040283529160200191610701565b820191906000526020600020905b8154815290600101906020018083116106e457829003601f168201915b505050505081526020019060010190610669565b50505050815260200160088201805480602002602001604051908101604052809291908181526020016000905b828210156107ee57838290600052602060002001805461076190612870565b80601f016020809104026020016040519081016040528092919081815260200182805461078d90612870565b80156107da5780601f106107af576101008083540402835291602001916107da565b820191906000526020600020905b8154815290600101906020018083116107bd57829003601f168201915b505050505081526020019060010190610742565b5050505081525050905060008160c001515167ffffffffffffffff811115610818576108186125cc565b604051908082528060200260200182016040528015610841578160200160208202803683370190505b50905060005b8260c0015151811015610941578260c00151818151811061086a5761086a6128aa565b60200260200101516000036108a057600082828151811061088d5761088d6128aa565b6020908102919091010152600101610847565b60006003546004546108b291906128d6565b90506000612710828660a001516108c991906128e9565b6108d39190612900565b8560a001516108e29190612922565b90508460c0015183815181106108fa576108fa6128aa565b60200260200101518161271061091091906128e9565b61091a9190612900565b84848151811061092c5761092c6128aa565b60209081029190910101525050600101610847565b509392505050565b6109b560405180610160016040528060006001600160a01b03168152602001600060ff168152602001600060ff16815260200160008152602001600081526020016000815260200160608152602001606081526020016060815260200160608152602001606081525090565b60008281526007602090815260409182902082516101608101845281546001600160a01b038116825260ff600160a01b8204811683860152600160a81b90910416818501526001820154606082015260028201546080820152600382015460a08201526004820180548551818602810186019096528086529194929360c08601939290830182828015610a6757602002820191906000526020600020905b815481526020019060010190808311610a53575b50505050508152602001600582018054610a8090612870565b80601f0160208091040260200160405190810160405280929190818152602001828054610aac90612870565b8015610af95780601f10610ace57610100808354040283529160200191610af9565b820191906000526020600020905b815481529060010190602001808311610adc57829003601f168201915b50505050508152602001600682018054610b1290612870565b80601f0160208091040260200160405190810160405280929190818152602001828054610b3e90612870565b8015610b8b5780601f10610b6057610100808354040283529160200191610b8b565b820191906000526020600020905b815481529060010190602001808311610b6e57829003601f168201915b5050505050815260200160078201805480602002602001604051908101604052809291908181526020016000905b82821015610c65578382906000526020600020018054610bd890612870565b80601f0160208091040260200160405190810160405280929190818152602001828054610c0490612870565b8015610c515780601f10610c2657610100808354040283529160200191610c51565b820191906000526020600020905b815481529060010190602001808311610c3457829003601f168201915b505050505081526020019060010190610bb9565b50505050815260200160088201805480602002602001604051908101604052809291908181526020016000905b82821015610d3e578382906000526020600020018054610cb190612870565b80601f0160208091040260200160405190810160405280929190818152602001828054610cdd90612870565b8015610d2a5780601f10610cff57610100808354040283529160200191610d2a565b820191906000526020600020905b815481529060010190602001808311610d0d57829003601f168201915b505050505081526020019060010190610c92565b505050915250909392505050565b6000610d583383611b87565b919050565b610d65611c84565b600654600003610db25760405162461bcd60e51b81526020600482015260136024820152724e6f206665657320746f20776974686472617760681b60448201526064015b60405180910390fd5b6001546006546040516000926001600160a01b031691908381818185875af1925050503d8060008114610e01576040519150601f19603f3d011682016040523d82523d6000602084013e610e06565b606091505b5050905080610e515760405162461bcd60e51b81526020600482015260176024820152764661696c656420746f207769746864726177206665657360481b6044820152606401610da9565b506000600655565b610e8060405180606001604052806000815260200160008152602001600060ff1681525090565b506001600160a01b03811660009081526008602090815260408083208584528252918290208251606081018452815481526001820154928101929092526002015460ff16918101919091525b92915050565b8060ff16600003610ef55760405162461bcd60e51b8152600401610da990612935565b34600003610f355760405162461bcd60e51b815260206004820152600d60248201526c139bc81d985b1d59481cd95b9d609a1b6044820152606401610da9565b6000828152600760209081526040808320338452600883528184208685529092528220815491929091600160a01b900460ff169003610fa65760405162461bcd60e51b815260206004820152600d60248201526c10995d081b9bdd08199bdd5b99609a1b6044820152606401610da9565b8154600160a01b900460ff16600203610ff15760405162461bcd60e51b815260206004820152600d60248201526c10995d081a185cc8195b991959609a1b6044820152606401610da9565b600482015460ff841611156110185760405162461bcd60e51b8152600401610da990612935565b42826002015410156110605760405162461bcd60e51b81526020600482015260116024820152700496e76616c69642074696d657374616d7607c1b6044820152606401610da9565b8154600160a81b900460ff16156110b95760405162461bcd60e51b815260206004820152601d60248201527f4265742068617320616c7265616479206265656e207265736f6c7665640000006044820152606401610da9565b600281015460ff16158015906110d95750600281015460ff848116911614155b156111305760405162461bcd60e51b815260206004820152602160248201527f43616e6e6f7420626574206f6e206d756c7469706c6520646972656374696f6e6044820152607360f81b6064820152608401610da9565b3482600301600082825461114491906128d6565b909155503490506004830161115a600186612960565b60ff168154811061116d5761116d6128aa565b90600052602060002001600082825461118691906128d6565b90915550508381556001810180543491906000906111a59084906128d6565b909155505060028101805460ff191660ff85161790553360008181526009602090815260408220805460018181018355828552928420018890559290915290546111ef9190612922565b336000908152600a602090815260408083209783529690529490942093909355505050565b61121c611c84565b6112266000611cb1565b565b6002546001600160a01b0316331461128c5760405162461bcd60e51b815260206004820152602160248201527f4f6e6c7920746865206f7261636c652063616e20636c6f7365207468652062656044820152601d60fa1b6064820152608401610da9565b6000828152600760205260409020600201544211156112e55760405162461bcd60e51b815260206004820152601560248201527410995d081a185cc81b9bdd08195b991959081e595d605a1b6044820152606401610da9565b8060ff166000036113085760405162461bcd60e51b8152600401610da990612935565b6000828152600760205260409020805460ff60a81b1916600160a81b60ff841602178155600454600382015461271091611341916128e9565b61134b9190612900565b6006600082825461135c91906128d6565b9091555061136b905083611d01565b60405168119d5b199a5b1b195960ba1b81526009016040519081900381209084907f0b0757697195159b9153065c6009e143c818510c8596fb3f2c42f6c4a5e9366c90600090a3505050565b60006113c48484846121a8565b949350505050565b6000806113da85878a6121a8565b9050604051806101600160405280336001600160a01b03168152602001600160ff168152602001600060ff168152602001828152602001888152602001600081526020018967ffffffffffffffff811115611437576114376125cc565b604051908082528060200260200182016040528015611460578160200160208202803683370190505b508152602080820189905260408083018990526060808401889052608093840189905260008681526007845282902085518154878601519488015160ff908116600160a81b0260ff60a81b1991909616600160a01b026001600160a81b03199092166001600160a01b03909316929092171716929092178255840151600182015591830151600283015560a0830151600383015560c0830151805161150b92600485019201906121df565b5060e0820151600582019061152090826129c9565b50610100820151600682019061153690826129c9565b50610120820151805161155391600784019160209091019061222a565b50610140820151805161157091600884019160209091019061222a565b50905050807f8cbe0c7e71bd84e2cc8155ffc2befd743093169888332d1504d97c03fc78d10588886040516115a6929190612a89565b60405180910390a2979650505050505050565b6001600160a01b03811660009081526009602090815260409182902080548351818402810184019094528084526060939283018282801561161957602002820191906000526020600020905b815481526020019060010190808311611605575b50505050509050919050565b600082815260076020908152604080832081516101608101835281546001600160a01b038116825260ff600160a01b8204811683870152600160a81b90910416818401526001820154606082015260028201546080820152600382015460a08201526004820180548451818702810187019095528085528695929460c0860193909291908301828280156116d857602002820191906000526020600020905b8154815260200190600101908083116116c4575b505050505081526020016005820180546116f190612870565b80601f016020809104026020016040519081016040528092919081815260200182805461171d90612870565b801561176a5780601f1061173f5761010080835404028352916020019161176a565b820191906000526020600020905b81548152906001019060200180831161174d57829003601f168201915b5050505050815260200160068201805461178390612870565b80601f01602080910402602001604051908101604052809291908181526020018280546117af90612870565b80156117fc5780601f106117d1576101008083540402835291602001916117fc565b820191906000526020600020905b8154815290600101906020018083116117df57829003601f168201915b5050505050815260200160078201805480602002602001604051908101604052809291908181526020016000905b828210156118d657838290600052602060002001805461184990612870565b80601f016020809104026020016040519081016040528092919081815260200182805461187590612870565b80156118c25780601f10611897576101008083540402835291602001916118c2565b820191906000526020600020905b8154815290600101906020018083116118a557829003601f168201915b50505050508152602001906001019061182a565b50505050815260200160088201805480602002602001604051908101604052809291908181526020016000905b828210156119af57838290600052602060002001805461192290612870565b80601f016020809104026020016040519081016040528092919081815260200182805461194e90612870565b801561199b5780601f106119705761010080835404028352916020019161199b565b820191906000526020600020905b81548152906001019060200180831161197e57829003601f168201915b505050505081526020019060010190611903565b505050508152505090508060c001518360ff16815181106119d2576119d26128aa565b60200260200101516000036119eb576000915050610ecc565b60006127106004548360a00151611a0291906128e9565b611a0c9190612900565b8260a00151611a1b9190612922565b90508160c001518460ff1681518110611a3657611a366128aa565b602002602001015181612710611a4c91906128e9565b611a569190612900565b95945050505050565b600081815260076020526040902060020154421115611ab85760405162461bcd60e51b815260206004820152601560248201527410995d081a185cc81b9bdd08195b991959081e595d605a1b6044820152606401610da9565b6000818152600760205260409081902060028054908201549251638163ba1160e01b815291926001600160a01b0390911691638163ba1191611b01916005860190600401612aa2565b6020604051808303816000875af1158015611b20573d6000803e3d6000fd5b505050506040513d601f19601f82011682018060405250810190611b449190612b3a565b505050565b611b51611c84565b6001600160a01b038116611b7b57604051631e4fbdf760e01b815260006004820152602401610da9565b611b8481611cb1565b50565b6001600160a01b0382166000908152600a60209081526040808320848452825280832054338452600990925290912080548190611bc690600190612922565b81548110611bd657611bd66128aa565b9060005260206000200154818381548110611bf357611bf36128aa565b906000526020600020018190555080805480611c1157611c11612b53565b6001900381819060005260206000200160009055905581600a6000866001600160a01b03166001600160a01b031681526020019081526020016000206000838581548110611c6157611c616128aa565b906000526020600020015481526020019081526020016000208190555050505050565b6000546001600160a01b031633146112265760405163118cdaa760e01b8152336004820152602401610da9565b600080546001600160a01b038381166001600160a01b0319831681178455604051919092169283917f8be0079c531659141344cd1fd0a4f28419497f9722a3daafe3b4186f6b6457e09190a35050565b600081815260076020908152604080832081516101608101835281546001600160a01b038116825260ff600160a01b8204811683870152600160a81b90910416818401526001820154606082015260028201546080820152600382015460a08201526004820180548451818702810187019095528085529194929360c0860193909290830182828015611db357602002820191906000526020600020905b815481526020019060010190808311611d9f575b50505050508152602001600582018054611dcc90612870565b80601f0160208091040260200160405190810160405280929190818152602001828054611df890612870565b8015611e455780601f10611e1a57610100808354040283529160200191611e45565b820191906000526020600020905b815481529060010190602001808311611e2857829003601f168201915b50505050508152602001600682018054611e5e90612870565b80601f0160208091040260200160405190810160405280929190818152602001828054611e8a90612870565b8015611ed75780601f10611eac57610100808354040283529160200191611ed7565b820191906000526020600020905b815481529060010190602001808311611eba57829003601f168201915b5050505050815260200160078201805480602002602001604051908101604052809291908181526020016000905b82821015611fb1578382906000526020600020018054611f2490612870565b80601f0160208091040260200160405190810160405280929190818152602001828054611f5090612870565b8015611f9d5780601f10611f7257610100808354040283529160200191611f9d565b820191906000526020600020905b815481529060010190602001808311611f8057829003601f168201915b505050505081526020019060010190611f05565b50505050815260200160088201805480602002602001604051908101604052809291908181526020016000905b8282101561208a578382906000526020600020018054611ffd90612870565b80601f016020809104026020016040519081016040528092919081815260200182805461202990612870565b80156120765780601f1061204b57610100808354040283529160200191612076565b820191906000526020600020905b81548152906001019060200180831161205957829003601f168201915b505050505081526020019060010190611fde565b505050508152505090508060a001516000036120de5760405162461bcd60e51b81526020600482015260136024820152724e6f206665657320746f20776974686472617760681b6044820152606401610da9565b60006127106003548360a001516120f591906128e9565b6120ff9190612900565b9050600082600001516001600160a01b03168260405160006040518083038185875af1925050503d8060008114612152576040519150601f19603f3d011682016040523d82523d6000602084013e612157565b606091505b50509050806121a25760405162461bcd60e51b81526020600482015260176024820152764661696c656420746f207769746864726177206665657360481b6044820152606401610da9565b50505050565b60008383836040516020016121bf93929190612b69565b60408051601f198184030181529190528051602090910120949350505050565b82805482825590600052602060002090810192821561221a579160200282015b8281111561221a5782518255916020019190600101906121ff565b5061222692915061227c565b5090565b828054828255906000526020600020908101928215612270579160200282015b82811115612270578251829061226090826129c9565b509160200191906001019061224a565b50612226929150612291565b5b80821115612226576000815560010161227d565b808211156122265760006122a582826122ae565b50600101612291565b5080546122ba90612870565b6000825580601f106122ca575050565b601f016020900490600052602060002090810190611b84919061227c565b6000602082840312156122fa57600080fd5b5035919050565b6020808252825182820181905260009190848201906040850190845b818110156123395783518352928401929184019160010161231d565b50909695505050505050565b60008151808452602080850194506020840160005b838110156123765781518752958201959082019060010161235a565b509495945050505050565b60005b8381101561239c578181015183820152602001612384565b50506000910152565b600081518084526123bd816020860160208601612381565b601f01601f19169290920160200192915050565b60008282518085526020808601955060208260051b8401016020860160005b8481101561241e57601f1986840301895261240c8383516123a5565b988401989250908301906001016123f0565b5090979650505050505050565b602081526124456020820183516001600160a01b03169052565b6000602083015161245b604084018260ff169052565b50604083015160ff811660608401525060608301516080830152608083015160a083015260a083015160c083015260c08301516101608060e08501526124a5610180850183612345565b915060e0850151601f196101008187860301818801526124c585846123a5565b9450808801519250506101208187860301818801526124e485846123a5565b94508088015192505061014081878603018188015261250385846123d1565b90880151878203909201848801529350905061251f83826123d1565b9695505050505050565b80356001600160a01b0381168114610d5857600080fd5b6000806040838503121561255357600080fd5b8235915061256360208401612529565b90509250929050565b6000806040838503121561257f57600080fd5b82359150602083013560ff8116811461259757600080fd5b809150509250929050565b600080604083850312156125b557600080fd5b6125be83612529565b946020939093013593505050565b634e487b7160e01b600052604160045260246000fd5b604051601f8201601f1916810167ffffffffffffffff8111828210171561260b5761260b6125cc565b604052919050565b600082601f83011261262457600080fd5b813567ffffffffffffffff81111561263e5761263e6125cc565b612651601f8201601f19166020016125e2565b81815284602083860101111561266657600080fd5b816020850160208301376000918101602001919091529392505050565b60008060006060848603121561269857600080fd5b833567ffffffffffffffff808211156126b057600080fd5b6126bc87838801612613565b945060208601359150808211156126d257600080fd5b506126df86828701612613565b925050604084013590509250925092565b600082601f83011261270157600080fd5b8135602067ffffffffffffffff8083111561271e5761271e6125cc565b8260051b61272d8382016125e2565b938452858101830193838101908886111561274757600080fd5b84880192505b85831015612783578235848111156127655760008081fd5b6127738a87838c0101612613565b835250918401919084019061274d565b98975050505050505050565b60008060008060008060c087890312156127a857600080fd5b8635955060208701359450604087013567ffffffffffffffff808211156127ce57600080fd5b6127da8a838b01612613565b955060608901359150808211156127f057600080fd5b6127fc8a838b01612613565b9450608089013591508082111561281257600080fd5b61281e8a838b016126f0565b935060a089013591508082111561283457600080fd5b5061284189828a016126f0565b9150509295509295509295565b60006020828403121561286057600080fd5b61286982612529565b9392505050565b600181811c9082168061288457607f821691505b6020821081036128a457634e487b7160e01b600052602260045260246000fd5b50919050565b634e487b7160e01b600052603260045260246000fd5b634e487b7160e01b600052601160045260246000fd5b80820180821115610ecc57610ecc6128c0565b8082028115828204841417610ecc57610ecc6128c0565b60008261291d57634e487b7160e01b600052601260045260246000fd5b500490565b81810381811115610ecc57610ecc6128c0565b60208082526011908201527024b73b30b634b2103234b932b1ba34b7b760791b604082015260600190565b60ff8281168282160390811115610ecc57610ecc6128c0565b601f821115611b44576000816000526020600020601f850160051c810160208610156129a25750805b601f850160051c820191505b818110156129c1578281556001016129ae565b505050505050565b815167ffffffffffffffff8111156129e3576129e36125cc565b6129f7816129f18454612870565b84612979565b602080601f831160018114612a2c5760008415612a145750858301515b600019600386901b1c1916600185901b1785556129c1565b600085815260208120601f198616915b82811015612a5b57888601518255948401946001909101908401612a3c565b5085821015612a795787850151600019600388901b60f8161c191681555b5050505050600190811b01905550565b8281526040602082015260006113c460408301846123a5565b828152600060206040602084015260008454612abd81612870565b8060408701526060600180841660008114612adf5760018114612afb57612b2b565b60ff19851660608a0152606084151560051b8a01019550612b2b565b89600052602060002060005b85811015612b225781548b8201860152908301908801612b07565b8a016060019650505b50939998505050505050505050565b600060208284031215612b4c57600080fd5b5051919050565b634e487b7160e01b600052603160045260246000fd5b60008451612b7b818460208901612381565b845190830190612b8f818360208901612381565b0192835250506020019291505056fea2646970667358221220fc9fd33abda293302ba84875d7d5c8c1ab10026f02dd79feed31d327e071387c64736f6c63430008190033",
    "linkReferences": {}
  },
  "methodIdentifiers": {
    "betFor(uint256,uint8)": "69a677ae",
    "betInfo(uint256)": "2d629ed4",
    "createBet(uint256,uint256,string,string,string[],string[])": "936cc302",
    "feeAmount()": "69e15404",
    "feeRecipient()": "46904840",
    "fulfillRequest(uint256,uint8)": "78bc804a",
    "getActiveBetsByUser(address)": "ca29e2e3",
    "getBetId(string,string,uint256)": "84bad788",
    "getBetResult(uint256)": "92a2bfe3",
    "getBetStatus(uint256)": "61f14f11",
    "getOdds(uint256)": "126c4166",
    "getOddsByDirection(uint256,uint8)": "e865665a",
    "owner()": "8da5cb5b",
    "renounceOwnership()": "715018a6",
    "requestOracle(uint256)": "eb076461",
    "transferOwnership(address)": "f2fde38b",
    "userBetById(uint256,address)": "4e778bb7",
    "userBets(address,uint256)": "8068aa68",
    "withdraw(uint256)": "2e1a7d4d",
    "withdrawFees()": "476343ee"
  },
  "id": 16
}