{
  "abi": [
    {
      "type": "constructor",
      "inputs": [
        {
          "name": "oracleRouter",
          "type": "address",
          "internalType": "address"
        }
      ],
      "stateMutability": "nonpayable"
    },
    {
      "type": "function",
      "name": "betFor",
      "inputs": [
        {
          "name": "id",
          "type": "uint256",
          "internalType": "uint256"
        },
        {
          "name": "direction",
          "type": "uint8",
          "internalType": "uint8"
        }
      ],
      "outputs": [],
      "stateMutability": "payable"
    },
    {
      "type": "function",
      "name": "betInfo",
      "inputs": [
        {
          "name": "id",
          "type": "uint256",
          "internalType": "uint256"
        }
      ],
      "outputs": [
        {
          "name": "",
          "type": "tuple",
          "internalType": "struct BetInfo",
          "components": [
            {
              "name": "creator",
              "type": "address",
              "internalType": "address"
            },
            {
              "name": "status",
              "type": "uint8",
              "internalType": "uint8"
            },
            {
              "name": "result",
              "type": "uint8",
              "internalType": "uint8"
            },
            {
              "name": "id",
              "type": "uint256",
              "internalType": "uint256"
            },
            {
              "name": "timestamp",
              "type": "uint256",
              "internalType": "uint256"
            },
            {
              "name": "verificationTimestamp",
              "type": "uint256",
              "internalType": "uint256"
            },
            {
              "name": "total",
              "type": "uint256",
              "internalType": "uint256"
            },
            {
              "name": "directionsAmount",
              "type": "uint256[]",
              "internalType": "uint256[]"
            },
            {
              "name": "url",
              "type": "string",
              "internalType": "string"
            },
            {
              "name": "condition",
              "type": "string",
              "internalType": "string"
            },
            {
              "name": "keys",
              "type": "string[]",
              "internalType": "string[]"
            },
            {
              "name": "params",
              "type": "string[]",
              "internalType": "string[]"
            }
          ]
        }
      ],
      "stateMutability": "view"
    },
    {
      "type": "function",
      "name": "createBet",
      "inputs": [
        {
          "name": "maxDirection",
          "type": "uint256",
          "internalType": "uint256"
        },
        {
          "name": "timestamp",
          "type": "uint256",
          "internalType": "uint256"
        },
        {
          "name": "verificationTimestamp",
          "type": "uint256",
          "internalType": "uint256"
        },
        {
          "name": "url",
          "type": "string",
          "internalType": "string"
        },
        {
          "name": "condition",
          "type": "string",
          "internalType": "string"
        },
        {
          "name": "params",
          "type": "string[]",
          "internalType": "string[]"
        },
        {
          "name": "key",
          "type": "string[]",
          "internalType": "string[]"
        }
      ],
      "outputs": [
        {
          "name": "",
          "type": "uint256",
          "internalType": "uint256"
        }
      ],
      "stateMutability": "payable"
    },
    {
      "type": "function",
      "name": "feeAmount",
      "inputs": [],
      "outputs": [
        {
          "name": "",
          "type": "uint256",
          "internalType": "uint256"
        }
      ],
      "stateMutability": "view"
    },
    {
      "type": "function",
      "name": "feeRecipient",
      "inputs": [],
      "outputs": [
        {
          "name": "",
          "type": "address",
          "internalType": "address"
        }
      ],
      "stateMutability": "view"
    },
    {
      "type": "function",
      "name": "fulfillRequest",
      "inputs": [
        {
          "name": "id",
          "type": "uint256",
          "internalType": "uint256"
        },
        {
          "name": "direction",
          "type": "uint8",
          "internalType": "uint8"
        }
      ],
      "outputs": [],
      "stateMutability": "nonpayable"
    },
    {
      "type": "function",
      "name": "getActiveBetsByUser",
      "inputs": [
        {
          "name": "user",
          "type": "address",
          "internalType": "address"
        }
      ],
      "outputs": [
        {
          "name": "",
          "type": "uint256[]",
          "internalType": "uint256[]"
        }
      ],
      "stateMutability": "view"
    },
    {
      "type": "function",
      "name": "getBetId",
      "inputs": [
        {
          "name": "condition",
          "type": "string",
          "internalType": "string"
        },
        {
          "name": "url",
          "type": "string",
          "internalType": "string"
        },
        {
          "name": "maxDirection",
          "type": "uint256",
          "internalType": "uint256"
        }
      ],
      "outputs": [
        {
          "name": "",
          "type": "uint256",
          "internalType": "uint256"
        }
      ],
      "stateMutability": "pure"
    },
    {
      "type": "function",
      "name": "getBetResult",
      "inputs": [
        {
          "name": "id",
          "type": "uint256",
          "internalType": "uint256"
        }
      ],
      "outputs": [
        {
          "name": "",
          "type": "uint8",
          "internalType": "uint8"
        }
      ],
      "stateMutability": "view"
    },
    {
      "type": "function",
      "name": "getBetStatus",
      "inputs": [
        {
          "name": "id",
          "type": "uint256",
          "internalType": "uint256"
        }
      ],
      "outputs": [
        {
          "name": "",
          "type": "uint8",
          "internalType": "uint8"
        }
      ],
      "stateMutability": "view"
    },
    {
      "type": "function",
      "name": "getCreatorFees",
      "inputs": [],
      "outputs": [
        {
          "name": "fees",
          "type": "uint256",
          "internalType": "uint256"
        },
        {
          "name": "feeDenominator",
          "type": "uint256",
          "internalType": "uint256"
        }
      ],
      "stateMutability": "view"
    },
    {
      "type": "function",
      "name": "getFees",
      "inputs": [],
      "outputs": [
        {
          "name": "fees",
          "type": "uint256",
          "internalType": "uint256"
        },
        {
          "name": "feeDenominator",
          "type": "uint256",
          "internalType": "uint256"
        }
      ],
      "stateMutability": "view"
    },
    {
      "type": "function",
      "name": "getOdds",
      "inputs": [
        {
          "name": "id",
          "type": "uint256",
          "internalType": "uint256"
        }
      ],
      "outputs": [
        {
          "name": "",
          "type": "uint256[]",
          "internalType": "uint256[]"
        }
      ],
      "stateMutability": "view"
    },
    {
      "type": "function",
      "name": "getOddsByDirection",
      "inputs": [
        {
          "name": "id",
          "type": "uint256",
          "internalType": "uint256"
        },
        {
          "name": "direction",
          "type": "uint8",
          "internalType": "uint8"
        }
      ],
      "outputs": [
        {
          "name": "",
          "type": "uint256",
          "internalType": "uint256"
        }
      ],
      "stateMutability": "view"
    },
    {
      "type": "function",
      "name": "owner",
      "inputs": [],
      "outputs": [
        {
          "name": "",
          "type": "address",
          "internalType": "address"
        }
      ],
      "stateMutability": "view"
    },
    {
      "type": "function",
      "name": "renounceOwnership",
      "inputs": [],
      "outputs": [],
      "stateMutability": "nonpayable"
    },
    {
      "type": "function",
      "name": "requestOracle",
      "inputs": [
        {
          "name": "id",
          "type": "uint256",
          "internalType": "uint256"
        }
      ],
      "outputs": [],
      "stateMutability": "nonpayable"
    },
    {
      "type": "function",
      "name": "setCreatorFees",
      "inputs": [
        {
          "name": "newCreatorFees",
          "type": "uint256",
          "internalType": "uint256"
        }
      ],
      "outputs": [],
      "stateMutability": "nonpayable"
    },
    {
      "type": "function",
      "name": "setFees",
      "inputs": [
        {
          "name": "newFees",
          "type": "uint256",
          "internalType": "uint256"
        }
      ],
      "outputs": [],
      "stateMutability": "nonpayable"
    },
    {
      "type": "function",
      "name": "transferOwnership",
      "inputs": [
        {
          "name": "newOwner",
          "type": "address",
          "internalType": "address"
        }
      ],
      "outputs": [],
      "stateMutability": "nonpayable"
    },
    {
      "type": "function",
      "name": "userBetById",
      "inputs": [
        {
          "name": "id",
          "type": "uint256",
          "internalType": "uint256"
        },
        {
          "name": "user",
          "type": "address",
          "internalType": "address"
        }
      ],
      "outputs": [
        {
          "name": "",
          "type": "tuple",
          "internalType": "struct UserBet",
          "components": [
            {
              "name": "id",
              "type": "uint256",
              "internalType": "uint256"
            },
            {
              "name": "amount",
              "type": "uint256",
              "internalType": "uint256"
            },
            {
              "name": "direction",
              "type": "uint8",
              "internalType": "uint8"
            }
          ]
        }
      ],
      "stateMutability": "view"
    },
    {
      "type": "function",
      "name": "userBets",
      "inputs": [
        {
          "name": "",
          "type": "address",
          "internalType": "address"
        },
        {
          "name": "",
          "type": "uint256",
          "internalType": "uint256"
        }
      ],
      "outputs": [
        {
          "name": "id",
          "type": "uint256",
          "internalType": "uint256"
        },
        {
          "name": "amount",
          "type": "uint256",
          "internalType": "uint256"
        },
        {
          "name": "direction",
          "type": "uint8",
          "internalType": "uint8"
        }
      ],
      "stateMutability": "view"
    },
    {
      "type": "function",
      "name": "withdraw",
      "inputs": [
        {
          "name": "id",
          "type": "uint256",
          "internalType": "uint256"
        }
      ],
      "outputs": [
        {
          "name": "amounts",
          "type": "uint256",
          "internalType": "uint256"
        }
      ],
      "stateMutability": "nonpayable"
    },
    {
      "type": "function",
      "name": "withdrawFees",
      "inputs": [],
      "outputs": [],
      "stateMutability": "nonpayable"
    },
    {
      "type": "event",
      "name": "Bet",
      "inputs": [
        {
          "name": "id",
          "type": "uint256",
          "indexed": true,
          "internalType": "uint256"
        },
        {
          "name": "timestamp",
          "type": "uint256",
          "indexed": false,
          "internalType": "uint256"
        },
        {
          "name": "url",
          "type": "string",
          "indexed": false,
          "internalType": "string"
        }
      ],
      "anonymous": false
    },
    {
      "type": "event",
      "name": "OwnershipTransferred",
      "inputs": [
        {
          "name": "previousOwner",
          "type": "address",
          "indexed": true,
          "internalType": "address"
        },
        {
          "name": "newOwner",
          "type": "address",
          "indexed": true,
          "internalType": "address"
        }
      ],
      "anonymous": false
    },
    {
      "type": "event",
      "name": "Result",
      "inputs": [
        {
          "name": "id",
          "type": "uint256",
          "indexed": true,
          "internalType": "uint256"
        },
        {
          "name": "value",
          "type": "string",
          "indexed": true,
          "internalType": "string"
        }
      ],
      "anonymous": false
    },
    {
      "type": "error",
      "name": "BetEnded",
      "inputs": []
    },
    {
      "type": "error",
      "name": "BetLost",
      "inputs": []
    },
    {
      "type": "error",
      "name": "BetNotEnded",
      "inputs": []
    },
    {
      "type": "error",
      "name": "BetNotFound",
      "inputs": []
    },
    {
      "type": "error",
      "name": "BetNotResolved",
      "inputs": []
    },
    {
      "type": "error",
      "name": "BetResolved",
      "inputs": []
    },
    {
      "type": "error",
      "name": "CanNotBetOnMultipleDirections",
      "inputs": []
    },
    {
      "type": "error",
      "name": "FailedToWithdraw",
      "inputs": []
    },
    {
      "type": "error",
      "name": "InvalidBetDirection",
      "inputs": []
    },
    {
      "type": "error",
      "name": "InvalidCaller",
      "inputs": []
    },
    {
      "type": "error",
      "name": "InvalidVerificationTimestamp",
      "inputs": []
    },
    {
      "type": "error",
      "name": "NoFeesToWithdraw",
      "inputs": []
    },
    {
      "type": "error",
      "name": "NoFundsSent",
      "inputs": []
    },
    {
      "type": "error",
      "name": "OwnableInvalidOwner",
      "inputs": [
        {
          "name": "owner",
          "type": "address",
          "internalType": "address"
        }
      ]
    },
    {
      "type": "error",
      "name": "OwnableUnauthorizedAccount",
      "inputs": [
        {
          "name": "account",
          "type": "address",
          "internalType": "address"
        }
      ]
    }
  ],
  "bytecode": {
    "object": "0x608060405261271060035560c86004556101f460055566038d7ea4c6800060065534801561002c57600080fd5b5060405161333038038061333083398101604081905261004b916100f0565b338061007157604051631e4fbdf760e01b81526000600482015260240160405180910390fd5b61007a816100a0565b50600280546001600160a01b0319166001600160a01b0392909216919091179055610120565b600080546001600160a01b038381166001600160a01b0319831681178455604051919092169283917f8be0079c531659141344cd1fd0a4f28419497f9722a3daafe3b4186f6b6457e09190a35050565b60006020828403121561010257600080fd5b81516001600160a01b038116811461011957600080fd5b9392505050565b6132018061012f6000396000f3fe60806040526004361061014b5760003560e01c806378bc804a116100b6578063db8d55f11161006f578063db8d55f114610462578063e865665a1461047a578063eb0764611461049a578063f2fde38b146104ba578063f7a60887146104da578063f82c592b146104ed57600080fd5b806378bc804a146103455780638068aa681461036557806384bad788146103cd5780638da5cb5b146103ed57806392a2bfe31461040b578063ca29e2e31461044257600080fd5b8063476343ee11610108578063476343ee146102645780634e778bb71461027957806361f14f11146102be57806369a677ae1461030757806369e154041461031a578063715018a61461033057600080fd5b8063126c41661461015057806316b8964c146101865780632d629ed4146101af5780632e1a7d4d146101dc5780633d18678e1461020a578063469048401461022c575b600080fd5b34801561015c57600080fd5b5061017061016b3660046127fa565b61050d565b60405161017d9190612813565b60405180910390f35b34801561019257600080fd5b506004546003545b6040805192835260208301919091520161017d565b3480156101bb57600080fd5b506101cf6101ca3660046127fa565b610a00565b60405161017d919061293d565b3480156101e857600080fd5b506101fc6101f73660046127fa565b610e14565b60405190815260200161017d565b34801561021657600080fd5b5061022a6102253660046127fa565b61135e565b005b34801561023857600080fd5b5060015461024c906001600160a01b031681565b6040516001600160a01b03909116815260200161017d565b34801561027057600080fd5b5061022a61136b565b34801561028557600080fd5b50610299610294366004612a64565b611414565b6040805182518152602080840151908201529181015160ff169082015260600161017d565b3480156102ca57600080fd5b506102f56102d93660046127fa565b600090815260086020526040902054600160a01b900460ff1690565b60405160ff909116815260200161017d565b61022a610315366004612a90565b61148d565b34801561032657600080fd5b506101fc60075481565b34801561033c57600080fd5b5061022a6116e9565b34801561035157600080fd5b5061022a610360366004612a90565b6116fd565b34801561037157600080fd5b506103af610380366004612ac6565b600960209081526000928352604080842090915290825290208054600182015460029092015490919060ff1683565b60408051938452602084019290925260ff169082015260600161017d565b3480156103d957600080fd5b506101fc6103e8366004612ba7565b61183d565b3480156103f957600080fd5b506000546001600160a01b031661024c565b34801561041757600080fd5b506102f56104263660046127fa565b600090815260086020526040902054600160a81b900460ff1690565b34801561044e57600080fd5b5061017061045d366004612c14565b611852565b34801561046e57600080fd5b5060055460035461019a565b34801561048657600080fd5b506101fc610495366004612a90565b6118be565b3480156104a657600080fd5b5061022a6104b53660046127fa565b611d17565b3480156104c657600080fd5b5061022a6104d5366004612c14565b611dea565b6101fc6104e8366004612cd5565b611e2d565b3480156104f957600080fd5b5061022a6105083660046127fa565b6120c9565b600081815260086020908152604080832081516101808101835281546001600160a01b038116825260ff600160a01b8204811683870152600160a81b9091041681840152600182015460608281019190915260028301546080830152600383015460a0830152600483015460c0830152600583018054855181880281018801909652808652919695929460e08601939092908301828280156105ce57602002820191906000526020600020905b8154815260200190600101908083116105ba575b505050505081526020016006820180546105e790612d9f565b80601f016020809104026020016040519081016040528092919081815260200182805461061390612d9f565b80156106605780601f1061063557610100808354040283529160200191610660565b820191906000526020600020905b81548152906001019060200180831161064357829003601f168201915b5050505050815260200160078201805461067990612d9f565b80601f01602080910402602001604051908101604052809291908181526020018280546106a590612d9f565b80156106f25780601f106106c7576101008083540402835291602001916106f2565b820191906000526020600020905b8154815290600101906020018083116106d557829003601f168201915b5050505050815260200160088201805480602002602001604051908101604052809291908181526020016000905b828210156107cc57838290600052602060002001805461073f90612d9f565b80601f016020809104026020016040519081016040528092919081815260200182805461076b90612d9f565b80156107b85780601f1061078d576101008083540402835291602001916107b8565b820191906000526020600020905b81548152906001019060200180831161079b57829003601f168201915b505050505081526020019060010190610720565b50505050815260200160098201805480602002602001604051908101604052809291908181526020016000905b828210156108a557838290600052602060002001805461081890612d9f565b80601f016020809104026020016040519081016040528092919081815260200182805461084490612d9f565b80156108915780601f1061086657610100808354040283529160200191610891565b820191906000526020600020905b81548152906001019060200180831161087457829003601f168201915b5050505050815260200190600101906107f9565b5050505081525050905060008160e001515167ffffffffffffffff8111156108cf576108cf612af0565b6040519080825280602002602001820160405280156108f8578160200160208202803683370190505b50905060005b8260e00151518110156109f8578260e00151818151811061092157610921612dd9565b602002602001015160000361095757600082828151811061094457610944612dd9565b60209081029190910101526001016108fe565b60006004546005546109699190612e05565b90506000600354828660c001516109809190612e18565b61098a9190612e2f565b8560c001516109999190612e51565b90508460e0015183815181106109b1576109b1612dd9565b6020026020010151600354826109c79190612e18565b6109d19190612e2f565b8484815181106109e3576109e3612dd9565b602090810291909101015250506001016108fe565b509392505050565b610a7360405180610180016040528060006001600160a01b03168152602001600060ff168152602001600060ff1681526020016000815260200160008152602001600081526020016000815260200160608152602001606081526020016060815260200160608152602001606081525090565b60008281526008602090815260409182902082516101808101845281546001600160a01b038116825260ff600160a01b8204811683860152600160a81b90910416818501526001820154606082015260028201546080820152600382015460a0820152600482015460c08201526005820180548551818602810186019096528086529194929360e08601939290830182828015610b2f57602002820191906000526020600020905b815481526020019060010190808311610b1b575b50505050508152602001600682018054610b4890612d9f565b80601f0160208091040260200160405190810160405280929190818152602001828054610b7490612d9f565b8015610bc15780601f10610b9657610100808354040283529160200191610bc1565b820191906000526020600020905b815481529060010190602001808311610ba457829003601f168201915b50505050508152602001600782018054610bda90612d9f565b80601f0160208091040260200160405190810160405280929190818152602001828054610c0690612d9f565b8015610c535780601f10610c2857610100808354040283529160200191610c53565b820191906000526020600020905b815481529060010190602001808311610c3657829003601f168201915b5050505050815260200160088201805480602002602001604051908101604052809291908181526020016000905b82821015610d2d578382906000526020600020018054610ca090612d9f565b80601f0160208091040260200160405190810160405280929190818152602001828054610ccc90612d9f565b8015610d195780601f10610cee57610100808354040283529160200191610d19565b820191906000526020600020905b815481529060010190602001808311610cfc57829003601f168201915b505050505081526020019060010190610c81565b50505050815260200160098201805480602002602001604051908101604052809291908181526020016000905b82821015610e06578382906000526020600020018054610d7990612d9f565b80601f0160208091040260200160405190810160405280929190818152602001828054610da590612d9f565b8015610df25780601f10610dc757610100808354040283529160200191610df2565b820191906000526020600020905b815481529060010190602001808311610dd557829003601f168201915b505050505081526020019060010190610d5a565b505050915250909392505050565b3360009081526009602090815260408083208484528252808320815160608082018452825482526001808401548387015260029384015460ff908116848701528888526008875285882086516101808101885281546001600160a01b0381168252600160a01b81048416828b0152600160a81b9004909216828801529182015492810192909252928301546080820152600383015460a0820152600483015460c08201526005830180548551818802810188019096528086529295879592949360e08601939291830182828015610f0a57602002820191906000526020600020905b815481526020019060010190808311610ef6575b50505050508152602001600682018054610f2390612d9f565b80601f0160208091040260200160405190810160405280929190818152602001828054610f4f90612d9f565b8015610f9c5780601f10610f7157610100808354040283529160200191610f9c565b820191906000526020600020905b815481529060010190602001808311610f7f57829003601f168201915b50505050508152602001600782018054610fb590612d9f565b80601f0160208091040260200160405190810160405280929190818152602001828054610fe190612d9f565b801561102e5780601f106110035761010080835404028352916020019161102e565b820191906000526020600020905b81548152906001019060200180831161101157829003601f168201915b5050505050815260200160088201805480602002602001604051908101604052809291908181526020016000905b8282101561110857838290600052602060002001805461107b90612d9f565b80601f01602080910402602001604051908101604052809291908181526020018280546110a790612d9f565b80156110f45780601f106110c9576101008083540402835291602001916110f4565b820191906000526020600020905b8154815290600101906020018083116110d757829003601f168201915b50505050508152602001906001019061105c565b50505050815260200160098201805480602002602001604051908101604052809291908181526020016000905b828210156111e157838290600052602060002001805461115490612d9f565b80601f016020809104026020016040519081016040528092919081815260200182805461118090612d9f565b80156111cd5780601f106111a2576101008083540402835291602001916111cd565b820191906000526020600020905b8154815290600101906020018083116111b057829003601f168201915b505050505081526020019060010190611135565b5050505081525050905081602001516000036112105760405163469bfa9160e01b815260040160405180910390fd5b602081015160ff1660021461123857604051637f3fa26760e01b815260040160405180910390fd5b806040015160ff166000036112605760405163b5820ebf60e01b815260040160405180910390fd5b60006112708584604001516118be565b9050816040015160ff16836040015160ff16036112ab5760035481846020015161129a9190612e18565b6112a49190612e2f565b93506112c4565b604051634891d9d560e01b815260040160405180910390fd5b604051600090339086908381818185875af1925050503d8060008114611306576040519150601f19603f3d011682016040523d82523d6000602084013e61130b565b606091505b505090508061132d57604051632684a07960e01b815260040160405180910390fd5b3360008181526009602090815260408083208a845290915281206001015561135590876120d6565b50505050919050565b6113666121da565b600555565b6113736121da565b60075460000361139657604051630d00db4d60e31b815260040160405180910390fd5b6001546007546040516000926001600160a01b031691908381818185875af1925050503d80600081146113e5576040519150601f19603f3d011682016040523d82523d6000602084013e6113ea565b606091505b505090508061140c57604051632684a07960e01b815260040160405180910390fd5b506000600755565b61143b60405180606001604052806000815260200160008152602001600060ff1681525090565b506001600160a01b03811660009081526009602090815260408083208584528252918290208251606081018452815481526001820154928101929092526002015460ff16918101919091525b92915050565b8060ff166000036114b157604051631eced3a760e31b815260040160405180910390fd5b346000036114d257604051630f65ea8160e31b815260040160405180910390fd5b6000828152600860209081526040808320338452600983528184208685529092528220815491929091600160a01b900460ff1690036115245760405163469bfa9160e01b815260040160405180910390fd5b8154600160a01b900460ff1660020361155057604051635dd57e0960e01b815260040160405180910390fd5b600582015460ff8416111561157857604051631eced3a760e31b815260040160405180910390fd5b428260020154101561159d57604051635dd57e0960e01b815260040160405180910390fd5b8154600160a81b900460ff16156115c75760405163092533a760e01b815260040160405180910390fd5b600281015460ff16158015906115e75750600281015460ff848116911614155b15611605576040516326d4a90560e21b815260040160405180910390fd5b348260040160008282546116199190612e05565b909155503490506005830161162f600186612e64565b60ff168154811061164257611642612dd9565b90600052602060002001600082825461165b9190612e05565b909155505083815560018101805434919060009061167a908490612e05565b909155505060028101805460ff191660ff8516179055336000818152600a602090815260408220805460018181018355828552928420018890559290915290546116c49190612e51565b336000908152600b602090815260408083209783529690529490942093909355505050565b6116f16121da565b6116fb6000612207565b565b6002546001600160a01b03163314611728576040516348f5c3ed60e01b815260040160405180910390fd5b60008281526008602052604090206003015442111561175a57604051637f3fa26760e01b815260040160405180910390fd5b8060ff1660000361177e57604051631eced3a760e31b815260040160405180910390fd5b6000828152600860205260409020805460ff60a81b1916600160a81b60ff8416021781556005546004820154612710916117b791612e18565b6117c19190612e2f565b600760008282546117d29190612e05565b9091555050805460ff60a01b1916600160a11b1781556117f183612257565b60405168119d5b199a5b1b195960ba1b81526009016040519081900381209084907f0b0757697195159b9153065c6009e143c818510c8596fb3f2c42f6c4a5e9366c90600090a3505050565b600061184a8484846126ba565b949350505050565b6001600160a01b0381166000908152600a60209081526040918290208054835181840281018401909452808452606093928301828280156118b257602002820191906000526020600020905b81548152602001906001019080831161189e575b50505050509050919050565b600082815260086020908152604080832081516101808101835281546001600160a01b038116825260ff600160a01b8204811683870152600160a81b90910416818401526001820154606082015260028201546080820152600382015460a0820152600482015460c08201526005820180548451818702810187019095528085528695929460e08601939092919083018282801561197b57602002820191906000526020600020905b815481526020019060010190808311611967575b5050505050815260200160068201805461199490612d9f565b80601f01602080910402602001604051908101604052809291908181526020018280546119c090612d9f565b8015611a0d5780601f106119e257610100808354040283529160200191611a0d565b820191906000526020600020905b8154815290600101906020018083116119f057829003601f168201915b50505050508152602001600782018054611a2690612d9f565b80601f0160208091040260200160405190810160405280929190818152602001828054611a5290612d9f565b8015611a9f5780601f10611a7457610100808354040283529160200191611a9f565b820191906000526020600020905b815481529060010190602001808311611a8257829003601f168201915b5050505050815260200160088201805480602002602001604051908101604052809291908181526020016000905b82821015611b79578382906000526020600020018054611aec90612d9f565b80601f0160208091040260200160405190810160405280929190818152602001828054611b1890612d9f565b8015611b655780601f10611b3a57610100808354040283529160200191611b65565b820191906000526020600020905b815481529060010190602001808311611b4857829003601f168201915b505050505081526020019060010190611acd565b50505050815260200160098201805480602002602001604051908101604052809291908181526020016000905b82821015611c52578382906000526020600020018054611bc590612d9f565b80601f0160208091040260200160405190810160405280929190818152602001828054611bf190612d9f565b8015611c3e5780601f10611c1357610100808354040283529160200191611c3e565b820191906000526020600020905b815481529060010190602001808311611c2157829003601f168201915b505050505081526020019060010190611ba6565b5050509152505060e0810151909150611c6c600185612e64565b60ff1681518110611c7f57611c7f612dd9565b6020026020010151600003611c98576000915050611487565b60006003546005548360c00151611caf9190612e18565b611cb99190612e2f565b8260c00151611cc89190612e51565b60e0830151909150611cdb600186612e64565b60ff1681518110611cee57611cee612dd9565b602002602001015160035482611d049190612e18565b611d0e9190612e2f565b95945050505050565b600081815260086020526040902060030154421115611d4957604051637f3fa26760e01b815260040160405180910390fd5b600081815260086020819052604091829020600280549082015493516314937b2160e31b815291936001600160a01b039091169263a49bd90892611da29291600687019160098801918801906007890190600401612f4b565b6020604051808303816000875af1158015611dc1573d6000803e3d6000fd5b505050506040513d601f19601f82011682018060405250810190611de59190612f9e565b505050565b611df26121da565b6001600160a01b038116611e2157604051631e4fbdf760e01b8152600060048201526024015b60405180910390fd5b611e2a81612207565b50565b600085871115611e5057604051633554ab2960e11b815260040160405180910390fd5b6000611e5d85878b6126ba565b9050604051806101800160405280336001600160a01b03168152602001600160ff168152602001600060ff168152602001828152602001898152602001888152602001600081526020018a67ffffffffffffffff811115611ec057611ec0612af0565b604051908082528060200260200182016040528015611ee9578160200160208202803683370190505b508152602080820189905260408083018990526060808401889052608093840189905260008681526008845282902085518154878601519488015160ff908116600160a81b0260ff60a81b1991909616600160a01b026001600160a81b03199092166001600160a01b03909316929092171716929092178255840151600182015591830151600283015560a0830151600383015560c0830151600483015560e08301518051611f9e92600585019201906126f1565b506101008201516006820190611fb49082613007565b506101208201516007820190611fca9082613007565b506101408201518051611fe791600884019160209091019061273c565b50610160820151805161200491600984019160209091019061273c565b50506002546040516302b953d360e01b81526001600160a01b0390911691506302b953d39061203f908a908a90899089908c90600401613114565b6020604051808303816000875af115801561205e573d6000803e3d6000fd5b505050506040513d601f19601f820116820180604052508101906120829190612f9e565b50807f8cbe0c7e71bd84e2cc8155ffc2befd743093169888332d1504d97c03fc78d10589886040516120b5929190613167565b60405180910390a298975050505050505050565b6120d16121da565b600455565b6001600160a01b0382166000908152600b60209081526040808320848452825280832054338452600a9092529091208054819061211590600190612e51565b8154811061212557612125612dd9565b906000526020600020015481838154811061214257612142612dd9565b90600052602060002001819055508080548061216057612160613180565b6001900381819060005260206000200160009055905580805490506000036121885750505050565b6001600160a01b0384166000908152600b6020526040812082548492908490849081106121b7576121b7612dd9565b906000526020600020015481526020019081526020016000208190555050505050565b6000546001600160a01b031633146116fb5760405163118cdaa760e01b8152336004820152602401611e18565b600080546001600160a01b038381166001600160a01b0319831681178455604051919092169283917f8be0079c531659141344cd1fd0a4f28419497f9722a3daafe3b4186f6b6457e09190a35050565b600081815260086020908152604080832081516101808101835281546001600160a01b038116825260ff600160a01b8204811683870152600160a81b90910416818401526001820154606082015260028201546080820152600382015460a0820152600482015460c08201526005820180548451818702810187019095528085529194929360e086019390929083018282801561231357602002820191906000526020600020905b8154815260200190600101908083116122ff575b5050505050815260200160068201805461232c90612d9f565b80601f016020809104026020016040519081016040528092919081815260200182805461235890612d9f565b80156123a55780601f1061237a576101008083540402835291602001916123a5565b820191906000526020600020905b81548152906001019060200180831161238857829003601f168201915b505050505081526020016007820180546123be90612d9f565b80601f01602080910402602001604051908101604052809291908181526020018280546123ea90612d9f565b80156124375780601f1061240c57610100808354040283529160200191612437565b820191906000526020600020905b81548152906001019060200180831161241a57829003601f168201915b5050505050815260200160088201805480602002602001604051908101604052809291908181526020016000905b8282101561251157838290600052602060002001805461248490612d9f565b80601f01602080910402602001604051908101604052809291908181526020018280546124b090612d9f565b80156124fd5780601f106124d2576101008083540402835291602001916124fd565b820191906000526020600020905b8154815290600101906020018083116124e057829003601f168201915b505050505081526020019060010190612465565b50505050815260200160098201805480602002602001604051908101604052809291908181526020016000905b828210156125ea57838290600052602060002001805461255d90612d9f565b80601f016020809104026020016040519081016040528092919081815260200182805461258990612d9f565b80156125d65780601f106125ab576101008083540402835291602001916125d6565b820191906000526020600020905b8154815290600101906020018083116125b957829003601f168201915b50505050508152602001906001019061253e565b505050508152505090508060c0015160000361261957604051630d00db4d60e31b815260040160405180910390fd5b60006127106004548360c001516126309190612e18565b61263a9190612e2f565b9050600082600001516001600160a01b03168260405160006040518083038185875af1925050503d806000811461268d576040519150601f19603f3d011682016040523d82523d6000602084013e612692565b606091505b50509050806126b457604051632684a07960e01b815260040160405180910390fd5b50505050565b60008383836040516020016126d193929190613196565b60408051601f198184030181529190528051602090910120949350505050565b82805482825590600052602060002090810192821561272c579160200282015b8281111561272c578251825591602001919060010190612711565b5061273892915061278e565b5090565b828054828255906000526020600020908101928215612782579160200282015b8281111561278257825182906127729082613007565b509160200191906001019061275c565b506127389291506127a3565b5b80821115612738576000815560010161278f565b808211156127385760006127b782826127c0565b506001016127a3565b5080546127cc90612d9f565b6000825580601f106127dc575050565b601f016020900490600052602060002090810190611e2a919061278e565b60006020828403121561280c57600080fd5b5035919050565b6020808252825182820181905260009190848201906040850190845b8181101561284b5783518352928401929184019160010161282f565b50909695505050505050565b60008151808452602080850194506020840160005b838110156128885781518752958201959082019060010161286c565b509495945050505050565b60005b838110156128ae578181015183820152602001612896565b50506000910152565b600081518084526128cf816020860160208601612893565b601f01601f19169290920160200192915050565b60008282518085526020808601955060208260051b8401016020860160005b8481101561293057601f1986840301895261291e8383516128b7565b98840198925090830190600101612902565b5090979650505050505050565b602081526129576020820183516001600160a01b03169052565b6000602083015161296d604084018260ff169052565b50604083015160ff811660608401525060608301516080830152608083015160a083015260a083015160c083015260c083015160e083015260e083015161018061010081818601526129c36101a0860184612857565b9250808601519050601f196101208187860301818801526129e485846128b7565b945080880151925050610140818786030181880152612a0385846128b7565b945080880151925050610160818786030181880152612a2285846128e3565b908801518782039092018488015293509050612a3e83826128e3565b9695505050505050565b80356001600160a01b0381168114612a5f57600080fd5b919050565b60008060408385031215612a7757600080fd5b82359150612a8760208401612a48565b90509250929050565b60008060408385031215612aa357600080fd5b82359150602083013560ff81168114612abb57600080fd5b809150509250929050565b60008060408385031215612ad957600080fd5b612ae283612a48565b946020939093013593505050565b634e487b7160e01b600052604160045260246000fd5b604051601f8201601f1916810167ffffffffffffffff81118282101715612b2f57612b2f612af0565b604052919050565b600082601f830112612b4857600080fd5b813567ffffffffffffffff811115612b6257612b62612af0565b612b75601f8201601f1916602001612b06565b818152846020838601011115612b8a57600080fd5b816020850160208301376000918101602001919091529392505050565b600080600060608486031215612bbc57600080fd5b833567ffffffffffffffff80821115612bd457600080fd5b612be087838801612b37565b94506020860135915080821115612bf657600080fd5b50612c0386828701612b37565b925050604084013590509250925092565b600060208284031215612c2657600080fd5b612c2f82612a48565b9392505050565b600082601f830112612c4757600080fd5b8135602067ffffffffffffffff80831115612c6457612c64612af0565b8260051b612c73838201612b06565b9384528581018301938381019088861115612c8d57600080fd5b84880192505b85831015612cc957823584811115612cab5760008081fd5b612cb98a87838c0101612b37565b8352509184019190840190612c93565b98975050505050505050565b600080600080600080600060e0888a031215612cf057600080fd5b873596506020880135955060408801359450606088013567ffffffffffffffff80821115612d1d57600080fd5b612d298b838c01612b37565b955060808a0135915080821115612d3f57600080fd5b612d4b8b838c01612b37565b945060a08a0135915080821115612d6157600080fd5b612d6d8b838c01612c36565b935060c08a0135915080821115612d8357600080fd5b50612d908a828b01612c36565b91505092959891949750929550565b600181811c90821680612db357607f821691505b602082108103612dd357634e487b7160e01b600052602260045260246000fd5b50919050565b634e487b7160e01b600052603260045260246000fd5b634e487b7160e01b600052601160045260246000fd5b8082018082111561148757611487612def565b808202811582820484141761148757611487612def565b600082612e4c57634e487b7160e01b600052601260045260246000fd5b500490565b8181038181111561148757611487612def565b60ff828116828216039081111561148757611487612def565b60008154612e8a81612d9f565b808552602060018381168015612ea75760018114612ec157612eef565b60ff1985168884015283151560051b880183019550612eef565b866000528260002060005b85811015612ee75781548a8201860152908301908401612ecc565b890184019650505b505050505092915050565b60008282548085526020808601955060208260051b84010185600052602060002060005b8481101561293057858303601f19018952612f398383612e7d565b98840198925060019182019101612f1e565b85815260a060208201526000612f6460a0830187612e7d565b8281036040840152612f768187612efa565b90508281036060840152612f8a8186612efa565b90508281036080840152612cc98185612e7d565b600060208284031215612fb057600080fd5b5051919050565b601f821115611de5576000816000526020600020601f850160051c81016020861015612fe05750805b601f850160051c820191505b81811015612fff57828155600101612fec565b505050505050565b815167ffffffffffffffff81111561302157613021612af0565b6130358161302f8454612d9f565b84612fb7565b602080601f83116001811461306a57600084156130525750858301515b600019600386901b1c1916600185901b178555612fff565b600085815260208120601f198616915b828110156130995788860151825594840194600190910190840161307a565b50858210156130b75787850151600019600388901b60f8161c191681555b5050505050600190811b01905550565b60008282518085526020808601955060208260051b8401016020860160005b8481101561293057601f198684030189526131028383516128b7565b988401989250908301906001016130e6565b85815260a06020820152600061312d60a08301876128b7565b828103604084015261313f81876130c7565b9050828103606084015261315381866130c7565b90508281036080840152612cc981856128b7565b82815260406020820152600061184a60408301846128b7565b634e487b7160e01b600052603160045260246000fd5b600084516131a8818460208901612893565b8451908301906131bc818360208901612893565b0192835250506020019291505056fea2646970667358221220a1f1b521b11a3c4e82f0acda34ccc26a20c1159459605a5562f77e828ed5dc2e64736f6c63430008190033",
    "linkReferences": {}
  },
  "methodIdentifiers": {
    "betFor(uint256,uint8)": "69a677ae",
    "betInfo(uint256)": "2d629ed4",
    "createBet(uint256,uint256,uint256,string,string,string[],string[])": "f7a60887",
    "feeAmount()": "69e15404",
    "feeRecipient()": "46904840",
    "fulfillRequest(uint256,uint8)": "78bc804a",
    "getActiveBetsByUser(address)": "ca29e2e3",
    "getBetId(string,string,uint256)": "84bad788",
    "getBetResult(uint256)": "92a2bfe3",
    "getBetStatus(uint256)": "61f14f11",
    "getCreatorFees()": "16b8964c",
    "getFees()": "db8d55f1",
    "getOdds(uint256)": "126c4166",
    "getOddsByDirection(uint256,uint8)": "e865665a",
    "owner()": "8da5cb5b",
    "renounceOwnership()": "715018a6",
    "requestOracle(uint256)": "eb076461",
    "setCreatorFees(uint256)": "f82c592b",
    "setFees(uint256)": "3d18678e",
    "transferOwnership(address)": "f2fde38b",
    "userBetById(uint256,address)": "4e778bb7",
    "userBets(address,uint256)": "8068aa68",
    "withdraw(uint256)": "2e1a7d4d",
    "withdrawFees()": "476343ee"
  },
  "id": 18
}